:020000040800F2
:10000000F80C0020852200085744000843440008EB
:1000100063440008694400086F44000800000000C1
:10002000000000000000000000000000754400080F
:1000300081440008000000008D4400089944000835
:10004000E5220008E5220008E5220008F940000842
:10005000E5220008E5220008E5220008E522000864
:10006000E5220008E5220008E5220008E522000854
:10007000E5220008E5220008E5220008E522000844
:10008000E5220008E5220008E5220008E522000834
:10009000A5440008E5220008E5220008E522000842
:1000A000E5220008E5220008E5220008E522000814
:1000B000E5220008E5220008E5220008E522000804
:1000C000E5220008E5220008E5220008E5220008F4
:1000D000E5220008A5320008E5220008E522000814
:1000E000293D0008E5220008B14400080000000096
:1000F0000000000000000000000000000000000000
:1001000000000000000000005FF808F180B483B038
:1001100000AF03460A46FB8013467B717B79002BB8
:1001200008D00C4B1B889AB20A49FB8813439BB238
:100130000B8009E0074B1B889AB2FB88DB439BB21C
:10014000044913409BB20B8000BF0C37BD4680BCF6
:10015000704700BF0028004080B400AF054B9B886B
:100160009BB2044A43F010039BB2938000BFBD468C
:1001700080BC70470028004080B400AF054B9B88CE
:100180009BB2044A23F010039BB2938000BFBD468C
:1001900080BC70470028004080B483B000AF0023CB
:1001A000FB80074B9B8BFB80054B1B8B9BB21A0480
:1001B000FB88134318460C37BD4680BC704700BF10
:1001C0000028004080B582B000AF7860FFF7C4FF20
:1001D0007B681B0C9BB2074A03F00F039BB2138191
:1001E000044B7A6892B29A81FFF7C6FF00BF0837C6
:1001F000BD4680BD0028004080B400AF00BF064B64
:100200009B889BB203F02003002BF8D000BF00BFF7
:10021000BD4680BC704700BF0028004080B400AFDE
:100220000A4B9B889BB2094A23F008039BB2938038
:1002300000BF064B9B889BB203F00803002BF8D04D
:1002400000BF00BFBD4680BC704700BF0028004013
:1002500080B485B000AF0346FB800023FB730F4BD7
:100260009B889BB2DAB2FB88DBB21340FB730B4B6B
:100270001B889AB2FB8813409BB2002B05D0FB7BF6
:10028000002B02D00123FB7301E00023FB73FB7BF7
:1002900018461437BD4680BC704700BF0028004098
:1002A00080B483B000AF0346FB80074B9B889AB2B3
:1002B000FB88DB439BB2044913409BB28B8000BF99
:1002C0000C37BD4680BC70470028004080B582B026
:1002D00000AF0346FB80FB88002B05D1084B1B6851
:1002E00001221A82002306E0064B1B681B68984710
:1002F000034B1B680A3318460837BD4680BD00BF54
:10030000C4060020C006002080B500AF0F4B1B685C
:10031000DA780F4B5B789A4215D80C4B1B689B78A8
:10032000002B10D1094B1B689B88002B0BD1074B6E
:100330001A68064B1B68D2789A72064B1B685B687A
:100340009847002300E00223184680BDC406002021
:1003500024000020C006002080B582B000AF034614
:10036000FB80FB88002B05D1084B1B6801221A82F9
:10037000002306E0064B1B689B689847034B1B68ED
:100380000C3318460837BD4680BD00BFC4060020A8
:10039000C006002080B582B000AF1D4B1B689B6972
:1003A0001C4A126850791B4A1268D2781146984745
:1003B0000346FB71174B1B689B7A002B23D0FB79FC
:1003C000002B09D1134B1B681B79002B04D1114B57
:1003D0001B689B78002B01D0022315E0FB79002BD2
:1003E00011D10D4B1B68DB6898470A4B1A68094B03
:1003F0001B685279DA72074B1A68064B1B68D27871
:100400001A73002300E0022318460837BD4680BD5A
:100410009C060020C4060020C006002080B584B0E1
:1004200000AF0346FB80FB88002B05D1464B1B68C1
:1004300002221A82002382E0444B00221A80424B9F
:100440001B681B7803F07F03002B2CD13E4B1B68ED
:100450005B7A7B737B7B03F02003002B07D03B4B45
:100460001B7843F00203DAB2384B1A7006E0374BC0
:100470001B7823F00203DAB2344B1A707B7B03F053
:100480004003002B07D0314B1B7843F00103DAB255
:100490002E4B1A704EE02D4B1B7823F00103DAB27D
:1004A0002A4B1A7046E0284B1B681B7803F07F0329
:1004B000012B01D1254B42E0234B1B681B7803F035
:1004C0007F03022B34D1204B1B685B79FB73FB7BD2
:1004D00003F00F03BB7397F90F30002B13DABB7BCC
:1004E0009B0003F1804303F5B8431B689BB203F004
:1004F0003003102B1ED1154B1B7843F00103DAB2E9
:10050000124B1A7016E0BB7B9B0003F1804303F58E
:10051000B8431B689BB203F44053B3F5805F09D125
:100520000A4B1B7843F00103DAB2084B1A7001E062
:10053000002304E0064B1B681B699847034B1846D1
:100540001037BD4680BD00BFC40600201C06002039
:10055000C006002090B587B000AF6F4B1B681B78BA
:1005600003F07F033B613B69002B0AD16A4B1B6898
:100570005A7A694B1B6822F02002D2B25A720023C9
:10058000C6E03B69022B40F0C280634B1B685B886E
:10059000002B04D1604B1B681B79002B01D0022378
:1005A000B6E05E4BFB605C4B1B685B79BB60BB6875
:1005B00023F080037B607B683B60574B1B685B7953
:1005C0005BB2002B0BDA3B689B0003F1804303F521
:1005D000B8431B689BB203F030037B610AE03B68C1
:1005E0009B0003F1804303F5B8431B689BB203F4FF
:1005F00040537B61FB681B781A467B68934207D2A5
:100600007B69002B04D0444B1B689B7A002B01D1E3
:1006100002237DE0BB6803F08003002B17D03B680A
:100620009B0003F1804303F5B8431B689BB203F0C2
:100630003003102B65D13B68DBB2184601F0E9FCB2
:100640003B68DBB23021184601F0CEFB59E03B6835
:100650009B0003F1804303F5B8431B689BB203F48E
:100660004053B3F5805F4CD13B68002B27D13B68EA
:10067000DBB22B4A92F82C2092B21146184601F0B8
:1006800089FD3B689B0003F1804303F5B8431B6879
:100690009BB223F4804323F070039CB284F4805314
:1006A0009CB284F400539CB21E4B23439AB23B6825
:1006B0009B0003F1804303F5B8431A6021E03B68D7
:1006C000DBB2184601F078FC3B689B0003F18043E5
:1006D00003F5B8431B689BB223F4804323F07003F7
:1006E0009CB284F480539CB284F400539CB20D4BB2
:1006F00023439AB23B689B0003F1804303F5B84360
:100700001A60094B1B685B699847002300E00223CD
:1007100018461C37BD4690BDC406002024000020AA
:10072000280000208080FFFFC006002090B585B023
:1007300000AF3F4B1B685B79BB60BB6823F0800355
:100740007B607B683B603A4B1B685B795BB2002B3C
:100750000BDA3B689B0003F1804303F5B8431B6849
:100760009BB203F03003FB600AE03B689B0003F19F
:10077000804303F5B8431B689BB203F44053FB600E
:100780002C4B1B781A463B6893420CD2284B1B68B3
:100790005B88002B07D1FB68002B04D0244B1B681F
:1007A0009B7A002B01D102233EE0BB6803F080035B
:1007B000002B1AD03B689B0003F1804303F5B8433C
:1007C0001B689BB223F4E04323F040039CB284F007
:1007D00010039CB2184B23439AB23B689B0003F171
:1007E000804303F5B8431A6019E03B689B0003F1AE
:1007F000804303F5B8431B689BB223F4804323F086
:1008000070039CB284F480539CB20B4B23439AB286
:100810003B689B0003F1804303F5B8431A60074B24
:100820001B689B699847002318461437BD4690BD46
:10083000C4060020240000208080FFFFC0060020A6
:1008400080B500AF074B1B685A7A064B1B6842F015
:100850002002D2B25A72044B1B68DB69984700230E
:10086000184680BDC4060020C006002080B485B0B4
:1008700000AF03463960FB800D4B1B685B8AFB6051
:10088000FB88002B0AD13B689988FB689AB2084B19
:100890001B688A1A92B21A82002303E03B681A6826
:1008A000FB68134418461437BD4680BC704700BF30
:1008B000C406002080B584B000AF3A4B1B681033EB
:1008C000BB60BB681B887B60BB689B68002B2DD01E
:1008D0007B68002B2AD0BB689B88FB60FA687B682A
:1008E0009A4201D97B68FB60BB689B68FA6892B248
:1008F000104698473860BB681A88FB689BB2D31AC9
:100900009AB2BB681A80BB685A88FB689BB21344D2
:100910009AB2BB685A80002001F004FC03461946D5
:10092000FB689BB21A46386803F0ADFEBB681B88B3
:10093000002B0AD01C4B4FF440521A80002100209B
:1009400001F00AFC194B30221A80BB681A88BB6878
:100950009B889A4204D3134B1B6803221A721DE032
:10096000BB681B88002B04D00E4B1B6805221A7233
:1009700014E0BB681B88002B10D10A4B1B680622B1
:100980001A720B4B1B689BB21A460A4B13445B004E
:100990001A4600231360054B30221A8000BF10371F
:1009A000BD4680BDC40600201E0600202006002093
:1009B000505C00400230002080B586B000AF3B4B59
:1009C0001B681033FB60FB681B88BB60374B1B68E0
:1009D0001B7A7B61BB68002B1FD17B69042B1CD168
:1009E000334B1B78012B12D1324B1B689BB21A463A
:1009F000314B13445B001A46002313602F4B302207
:100A00001A8004237B612A4B00221A7045E00723D9
:100A10007B612A4B10221A803FE0FB689B883B6178
:100A2000BA683B699A4201D8042300E002237B6143
:100A30003A69BB689A4201D9BB683B61FB689B6815
:100A40003A6992B2104698477860002001F050FB56
:100A5000034619463B699BB21A46786803F0D8FDF5
:100A60003B699BB21946002001F076FBFB681A88AF
:100A70003B699BB2D31A9AB2FB681A80FB685A880A
:100A80003B699BB213449AB2FB685A800B4B3022ED
:100A90001A800B4B4FF440521A80044B1B687A6942
:100AA000D2B21A7200BF1837BD4680BDC4060020FE
:100AB000F4050020505C0040023000202006002099
:100AC0001E06002080B584B000AF0223FB735D4B8F
:100AD0001B685B787B605B4B1B681B7803F07F03B4
:100AE000002B56D17B68092B04D1FFF70DFC034680
:100AF000FB7376E07B68052B1AD1524B1B68DB78C1
:100B00005BB2002B0EDB4F4B1B689B78002B09D18F
:100B10004C4B1B689B88002B04D14A4B1B689B7A6B
:100B2000002B02D00823BB6082E00023FB7358E057
:100B30007B68032B11D1434B1B68DB78012B09D158
:100B4000404B1B689B88002B04D1FFF779FE0346BE
:100B5000FB7346E00223FB7343E07B68012B40D12B
:100B6000384B1B68DB78012B10D1364B1B689B88F8
:100B7000002B0BD1334B1B685B7A03F02003002B57
:100B800004D0FFF7E7FC0346FB732AE00223FB7364
:100B900027E02C4B1B681B7803F07F03012B07D148
:100BA0007B680B2B1DD1FFF7F5FB0346FB7318E0A9
:100BB000244B1B681B7803F07F03022B0FD17B684B
:100BC000012B04D1FFF7C6FC0346FB7309E07B68E9
:100BD000032B06D1FFF7AAFD0346FB7301E00223B6
:100BE000FB73FB7B002B0ED0174B1B685B697A688D
:100BF000D2B2104698470346FB73FB7B032B02D10E
:100C00000923BB6014E0FB7B002B02D00823BB60F0
:100C10000EE00623BB600D4B1B689BB21A460C4BC3
:100C200013445B001A46002313600A4B30221A80DB
:100C3000044B1B68BA68D2B21A7200BF1037BD46A7
:100C400080BD00BFC40600209C060020505C004010
:100C5000023000202006002080B58AB000AF944BFF
:100C60001B685B78BB6100237B6200237B61BB69EF
:100C7000062B24D18E4B1B681B7803F07F03002BBF
:100C800040F0D4808A4B1B689B78FB72FB7A012B67
:100C900004D1884B1B68DB697B62C7E0FB7A022BBF
:100CA00004D1844B1B681B6A7B62BFE0FB7A032B79
:100CB00040F0BC807F4B1B685B6A7B62B6E0BB691F
:100CC000002B78D17A4B1B685B88002B73D1784B53
:100CD0001B68DB88022B6ED1754B1B681B79002BC0
:100CE00069D1734B1B681B7803F07F03002B07D17E
:100CF0006F4B1B689B88002B02D16F4B7B6294E08B
:100D00006B4B1B681B7803F07F03012B14D1694BDD
:100D10001B689B69664A1268527900211046984701
:100D20000346002B40F08180614B1B689B7A002BAF
:100D30007BD0614B7B6278E05D4B1B681B7803F0D6
:100D40007F03022B71D15A4B1B685B7903F00F03B1
:100D50003B61574B1B685B7903F07003FB60544B9E
:100D60001B685B795BB2002B0BDA3B699B0003F1DC
:100D7000804303F5B8431B689BB203F03003FB616B
:100D80000AE03B699B0003F1804303F5B8431B680D
:100D90009BB203F44053FB61484B1B781A463B69F6
:100DA000934242D2FB68002B3FD1FB69002B3CD021
:100DB000414B7B6239E0BB69082B09D13C4B1B6876
:100DC0001B7803F07F03002B30D13D4B7B622DE07D
:100DD000BB690A2B2AD1364B1B681B7803F07F03B3
:100DE000012B23D1324B1B689B7A002B1ED0304B3A
:100DF0001B685B88002B19D12D4B1B681B79002BBE
:100E000014D12B4B1B68DB88012B0FD1294B1B689E
:100E10009B69274A12685279002110469847034679
:100E2000002B03D1274B7B6200E000BF7B6A002BC5
:100E30000FD01F4B1B687A6992B25A821C4B1B68F9
:100E40007A6A9A617B6A00209847002387F82330EA
:100E500013E0184B1B681B69154A1268527810463C
:100E60009847034687F8233097F82330032B04D1A3
:100E70000F4B1B6809221A7278E00D4B1B681B8A06
:100E80004FF6FF72934204D1094B1B6809221A7274
:100E90006CE097F82330022B04D0054B1B681B8AAB
:100EA000002B11D1024B1B6808221A725EE000BFB2
:100EB000C40600209C0600201D0400082400002019
:100EC000CD020008590300082A4B1B681B785BB24F
:100ED000002B42DA274B1B68DB887B60254B1B68A5
:100EE0001B8A1A467B689A4205D97A68214B1B688F
:100EF00092B21A8226E01F4B1B681A8A1D4B1B6890
:100F0000DB889A421ED21B4B1B681A8A1A4B1B683D
:100F100093F82C309BB29A4203D2184B00221A70DD
:100F200010E0144B1B681B8A134A126892F82C209D
:100F300093FBF2F102FB01F29B1A002B02D10F4B43
:100F400001221A700C4B1B6893F82C20094B1B686C
:100F500092B29A82FFF730FD07E0064B1B6803222E
:100F60001A72074B4FF440521A8000BF2837BD4613
:100F700080BD00BFC40600209C060020F4050020B0
:100F80001E06002090B583B000AF0123FB80304BDC
:100F90001B689BB21A462F4B13445B001B689BB225
:100FA0005B0003F1804303F5C0433B602A4B1B68A1
:100FB0001B7A092B37D03B685A1C3A60264A1268C4
:100FC0001B7813703B685A1C3A60234A12681B78DE
:100FD00053703A68FB885B0013443B603B689A1C83
:100FE0003A601B881C4A1468184601F033F903461E
:100FF00063803A68FB885B0013443B603B689A1C43
:101000003A601B88144A1468184601F023F9034615
:10101000A3803A68FB885B0013443B603A680E4B40
:101020001B681288DA800C4B1B6801221A720A4B6B
:101030001B68DB88002B02D1FFF744FD01E0FFF7BE
:101040000BFE00F08DF8034618460C37BD4690BDE8
:10105000505C004004300020C406002080B582B0FF
:1010600000AF1F4B1B681B7A7B607B68022B02D092
:101070007B68042B06D1FFF79FFC194B1B681B7A7A
:101080007B6021E07B68062B1CD1154B1B685B78CD
:10109000052B10D1124B1B681B7803F07F03002B2C
:1010A00009D10F4B1B68DB78184600F081F80D4B17
:1010B0001B681B6A98470C4B1B689B689847082362
:1010C0007B6001E008237B60054B1B687A68D2B225
:1010D0001A7200F045F8034618460837BD4680BD31
:1010E000C4060020C00600209C06002080B582B007
:1010F00000AF194B1B681B7A7B607B68022B02D008
:101100007B68042B02D108237B6018E07B68032BEB
:1011100002D07B68052B06D1FFF7CCFB0E4B1B687A
:101120001B7A7B600BE07B68072B06D10B4B1B689F
:10113000DB68984708237B6001E008237B60064B4F
:101140001B687A68D2B21A7200F00AF80346184691
:101150000837BD4680BD00BFC40600209C060020A5
:1011600080B500AF0E4B93F82C309BB2194600208F
:1011700001F010F80B4B1B681B7A082B06D10A4BA9
:101180004FF480521A80094B10221A80054B1B68BD
:101190001B7A092B0CBF01230023DBB2184680BD4C
:1011A00028000020C40600201E0600202006002083
:1011B00080B485B000AF0346FB711A4B1B78BB604F
:1011C0000023FB601EE0FB68DBB29B0003F1804361
:1011D00003F5B8431B689BB21A4640F60F731340E1
:1011E00043F4004343F08003FA68D2B21A43FB6829
:1011F000DBB29B0003F1804303F5B8431A60FB6840
:101200000133FB60FA68BB689A42DCD3FB7963F078
:101210007F03DAB2044B1A6000BF1437BD4680BCAE
:10122000704700BF240000204C5C004080B400AF39
:1012300000BFBD4680BC704780B485B000AF786009
:1012400039600023FB817B681B88FB817B682E4A09
:10125000934213D07B682D4A93420FD07B68B3F141
:10126000804F0BD07B682A4A934207D07B68294A7B
:10127000934203D07B68284A934208D1FB8923F02C
:101280007003FB813B685A88FB891343FB817B68B1
:10129000224A93420CD07B68214A934208D0FB89B2
:1012A00023F44073FB813B68DA88FB891343FB819D
:1012B0007B68FA891A803B689A887B689A853B68C4
:1012C0001A887B681A857B680F4A93420FD07B6827
:1012D0000E4A93420BD07B68124A934207D07B6838
:1012E000114A934203D07B68104A934204D13B6871
:1012F0001B7A9AB27B681A867B6801229A8200BFA9
:101300001437BD4680BC7047002C014000340140BA
:101310000004004000080040000C004000100040A5
:1013200000140040004001400044014000480140DA
:1013300080B485B000AF7860396000237B810023E2
:10134000FB810023BB817B681B8C9BB223F00103D4
:101350009AB27B681A847B681B8CFB817B689B88B4
:10136000BB817B681B8B7B817B8923F070037B8136
:101370007B8923F003037B813B681A887B891343B5
:101380007B81FB8923F00203FB813B681A89FB897F
:101390001343FB813B685A88FB891343FB817B68BD
:1013A000244A93420FD07B68234A93420BD07B6838
:1013B000224A934207D07B68214A934203D07B683C
:1013C000204A934223D1FB8923F00803FB813B6829
:1013D0005A89FB891343FB81FB8923F00403FB81BA
:1013E0003B689A88FB891343FB81BB8923F4807394
:1013F000BB81BB8923F40073BB813B689A89BB899D
:101400001343BB813B68DA89BB891343BB817B688B
:10141000BA899A807B687A891A833B68DA887B6804
:101420009A867B68FA891A8400BF1437BD4680BC4F
:10143000704700BF002C01400034014000400140D3
:10144000004401400048014080B485B000AF78609E
:10145000396000237B810023FB810023BB817B68F3
:101460001B8C9BB223F010039AB27B681A847B68B2
:101470001B8CFB817B689B88BB817B681B8B7B8182
:101480007B8923F4E0437B817B8923F440737B8158
:101490003B681B881B029AB27B8913437B81FB89C3
:1014A00023F02003FB813B681B891B019AB2FB8957
:1014B0001343FB813B685B881B019AB2FB89134392
:1014C000FB817B68224A934203D07B68214A934286
:1014D0002BD1FB8923F08003FB813B685B891B01D7
:1014E0009AB2FB891343FB81FB8923F04003FB8104
:1014F0003B689B881B019AB2FB891343FB81BB8924
:1015000023F48063BB81BB8923F40063BB813B6808
:101510009B899B009AB2BB891343BB813B68DB89E3
:101520009B009AB2BB891343BB817B68BA899A80BE
:101530007B687A891A833B68DA887B681A877B68BC
:10154000FA891A8400BF1437BD4680BC704700BFBB
:10155000002C01400034014080B485B000AF7860B9
:10156000396000237B810023FB810023BB817B68E2
:101570001B8C9BB223F480739AB27B681A847B68BD
:101580001B8CFB817B689B88BB817B689B8B7B81F1
:101590007B8923F070037B817B8923F003037B81AC
:1015A0003B681A887B8913437B81FB8923F4007392
:1015B000FB813B681B891B029AB2FB891343FB81A9
:1015C0003B685B881B029AB2FB891343FB817B68F3
:1015D000224A934203D07B68214A93422BD1FB8954
:1015E00023F40063FB813B685B891B029AB2FB8991
:1015F0001343FB81FB8923F48063FB813B689B8859
:101600001B029AB2FB891343FB81BB8923F48053ED
:10161000BB81BB8923F40053BB813B689B891B01C1
:101620009AB2BB891343BB813B68DB891B019AB229
:10163000BB891343BB817B68BA899A807B687A89AE
:101640009A833B68DA887B689A877B68FA891A8470
:1016500000BF1437BD4680BC704700BF002C01405E
:101660000034014080B485B000AF78603960002359
:10167000BB8100237B810023FB817B681B8C9BB299
:1016800023F480539AB27B681A847B681B8C7B811D
:101690007B689B88FB817B689B8BBB81BB8923F428
:1016A000E043BB81BB8923F44073BB813B681B884B
:1016B0001B029AB2BB891343BB817B8923F400537D
:1016C0007B813B681B891B039AB27B8913437B8117
:1016D0003B685B881B039AB27B8913437B817B68E1
:1016E000124A934203D07B68114A93420AD1FB8984
:1016F00023F48043FB813B689B899B019AB2FB8961
:101700001343FB817B68FA899A807B68BA899A8344
:101710003B68DA887B68A3F840207B687A891A8462
:1017200000BF1437BD4680BC704700BF002C01408D
:101730000034014080B483B000AF78600B46FB708A
:10174000FB78002B08D07B681B889BB243F0010319
:101750009AB27B681A8007E07B681B889BB223F0F3
:1017600001039AB27B681A8000BF0C37BD4680BC6B
:10177000704780B483B000AF78600B46FB70FB7895
:10178000002B08D07B681B889BB243F080039AB281
:101790007B681A8007E07B681B889BB223F080037C
:1017A0009AB27B681A8000BF0C37BD4680BC704778
:1017B00080B485B000AF78600B467B800023FB814E
:1017C0007B681B8BFB81FB8923F00803FB81FA8973
:1017D0007B881343FB817B68FA891A8300BF143727
:1017E000BD4680BC704780B485B000AF78600B46C2
:1017F0007B800023FB817B681B8BFB81FB8923F4AF
:101800000063FB817B881B029AB2FB891343FB8137
:101810007B68FA891A8300BF1437BD4680BC7047C5
:1018200080B485B000AF78600B467B800023FB81DD
:101830007B689B8BFB81FB8923F00803FB81FA8982
:101840007B881343FB817B68FA899A8300BF143736
:10185000BD4680BC704780B485B000AF78600B4651
:101860007B800023FB817B689B8BFB81FB8923F4BE
:101870000063FB817B881B029AB2FB891343FB81C7
:101880007B68FA899A8300BF1437BD4680BC7047D5
:1018900080B483B000AF78600B467B807B687A8829
:1018A0009A8600BF0C37BD4680BC704780B483B0B9
:1018B00000AF78600B467B807B687A881A8700BF10
:1018C0000C37BD4680BC704780B483B000AF7860F1
:1018D0000B467B807B687A889A8700BF0C37BD46B1
:1018E00080BC704780B483B000AF78600B467B80CB
:1018F0007B687A88A3F8402000BF0C37BD4680BCC7
:101900007047000090B583B000AF0023FB8062E118
:10191000844B1B889BB2DBB203F00F03DAB2824B1D
:101920001A70814B1B78002B40F008817F4B1B689D
:101930009AB27F4B1A807E4B1B889BB203F0300318
:101940009AB27C4B1A807A4B1B889BB203F44053AB
:101950009AB2774B1A80754B1B689BB24BF6BF74DB
:101960001C4084F4005484F02004A2B2724B134350
:101970009AB26E4B1A606B4B1B889BB203F010033C
:10198000002B3FD1694B1B689BB21946674A48F64A
:101990000F730B401360FFF761FB644B1B689BB236
:1019A0004BF6BF741C40624B1B889BB203F4805300
:1019B0009BB2002B01D084F480545D4B1B889BB2FA
:1019C00003F400539BB2002B01D084F40054594B14
:1019D0001B889BB203F010039BB2002B01D084F054
:1019E0001004544B1B889BB203F020039BB2002BC6
:1019F00001D084F02004A2B24F4B13439AB24B4B58
:101A00001A60F2E0494B1B689BB2FB80FB889BB2DB
:101A100003F40063002B3FD0444B1B689BB2194674
:101A2000424A40F68F730B401360FFF7ABFA3F4B0F
:101A30001B689BB24BF6BF741C403D4B1B889BB28E
:101A400003F480539BB2002B01D084F48054384BB4
:101A50001B889BB203F400539BB2002B01D084F48B
:101A60000054344B1B889BB203F010039BB2002B35
:101A700001D084F010042F4B1B889BB203F020038D
:101A80009BB2002B01D084F02004A2B22A4B134356
:101A90009AB2264B1A60A8E0FB889BB21BB2002BBF
:101AA00080F29980214B1B689BB219461F4A40F671
:101AB0008F730B401360FFF719FB1C4B1B689BB225
:101AC0004BF6BF741C401A4B1B889BB203F4805327
:101AD0009BB2002B01D084F48054154B1B889BB221
:101AE00003F400539BB2002B01D084F40054114B3B
:101AF0001B889BB203F010039BB2002B01D084F033
:101B000010040C4B1B889BB203F020039BB2002BEC
:101B100001D084F02004A2B2074B13439AB2034BC6
:101B20001A6062E0F4080020A0060020005C00407B
:101B30001E060020200600208080FFFF2C4B1B7813
:101B40009B0003F1804303F5B8431B689BB2FB8005
:101B5000FB889BB21BB2002B1BDA254B1B789B002A
:101B600003F1804303F5B8431B689BB21946204B31
:101B70001B789B0003F1804303F5B84340F68F7256
:101B80000A401A601A4B1B78013B1A4A52F823305C
:101B90009847FB889BB203F08003002B1BD0144BAB
:101BA0001B789B0003F1804303F5B8431B689BB28D
:101BB00019460F4B1B789B0003F1804303F5B84394
:101BC00048F60F720A401A60094B1B78013B0A4A1B
:101BD00052F823309847094B1B689AB2084B1146BC
:101BE000198013B2002BFFF693AE0C37BD4690BDA3
:101BF000A0060020D8050020BC050020445C004061
:101C0000F408002080B500AF154B1B68144A43F060
:101C100001031360124B5A681149124B13404B6079
:101C20000F4B1B680E4A23F0847323F48033136038
:101C30000B4B1B680A4A23F480231360084B5B6834
:101C4000074A23F4FE035360054B4FF41F029A60CA
:101C500000F00CF8044B4FF000629A6000BF80BDAA
:101C6000001002400000FFF800ED00E080B500AF7A
:101C700000F002F800BF80BD80B483B000AF002345
:101C80007B6000233B603A4B1B68394A43F4803346
:101C90001360374B1B6803F400333B607B680133F0
:101CA0007B603B68002B03D17B68B3F5A06FF0D15C
:101CB0002F4B1B6803F40033002B02D001233B6041
:101CC00001E000233B603B68012B4BD1294B1B6893
:101CD000284A43F010031360264B1B68254A23F063
:101CE00003031360234B1B68224A43F00203136073
:101CF0001F4B1F4A5B6853601D4B1D4A5B68536056
:101D00001B4B5B681A4A43F480635360184B5B6853
:101D1000174A23F47C135360154B5B68144A43F451
:101D2000E8135360124B1B68114A43F08073136031
:101D300000BF0F4B1B6803F00073002BF9D00C4B56
:101D40005B680B4A23F003035360094B5B68084A46
:101D500043F00203536000BF054B5B6803F00C03C4
:101D6000082BF9D100BF0C37BD4680BC704700BFBF
:101D7000001002400020024080B483B000AF034650
:101D8000FB80FA8804494FF6F87313400B6000BFDC
:101D90000C37BD4680BC7047505C004080B483B0B7
:101DA00000AF03460A46FB711346BB80FB799B00DC
:101DB00003F1804303F5B8431B681BB223F4EC43E3
:101DC00023F070031AB2B7F9043013431BB29AB26E
:101DD000FB799B0003F1804303F5B8431A6000BF11
:101DE0000C37BD4680BC704790B482B000AF03464C
:101DF0000A46FB711346BB80FB799B0003F18043CD
:101E000003F5B8431B689BB223F4E04323F040037F
:101E10009CB2BB8803F010039BB2002B02D084F06D
:101E200010039CB2BB8803F020039BB2002B02D0AE
:101E300084F020039CB2074B23439AB2FB799B00AA
:101E400003F1804303F5B8431A6000BF0837BD466D
:101E500090BC70478080FFFF90B482B000AF034613
:101E60000A46FB711346BB80FB799B0003F180435C
:101E700003F5B8431B689BB223F4804323F070033F
:101E80009CB2BB8803F480539BB2002B02D084F435
:101E900080539CB2BB8803F400539BB2002B02D04A
:101EA00084F400539CB2074B23439AB2FB799B0006
:101EB00003F1804303F5B8431A6000BF0837BD46FD
:101EC00090BC70478080FFFF90B482B000AF0346A3
:101ED000FB71FB799B0003F1804303F5B8431B685A
:101EE0009BB223F4E04323F040039CB284F0100340
:101EF0009CB284F020039CB2074B23439AB2FB7937
:101F00009B0003F1804303F5B8431A6000BF083714
:101F1000BD4690BC704700BF8080FFFF90B482B088
:101F200000AF0346FB71FB799B0003F1804303F58F
:101F3000B8431B689BB223F4804323F070039CB228
:101F400084F480539CB284F400539CB2074B234327
:101F50009AB2FB799B0003F1804303F5B8431A6002
:101F600000BF0837BD4690BC704700BF8080FFFFB0
:101F700080B483B000AF0346FB71FB799B0003F193
:101F8000804303F5B8431B681AB240F60F63134051
:101F90001AB2084B13431BB29AB2FB799B0003F1B0
:101FA000804303F5B8431A6000BF0C37BD4680BCC0
:101FB000704700BF8080FFFF80B483B000AF03464E
:101FC000FB71FB799B0003F1804303F5B8431B6869
:101FD0009BB203F48043002B16D0FB799B0003F1E6
:101FE000804303F5B8431B689BB21A4640F60F7353
:101FF000134043F4404242F08002FB799B0003F11E
:10200000804303F5B8431A6000BF0C37BD4680BC5F
:10201000704780B483B000AF0346FB71FB799B002F
:1020200003F1804303F5B8431B689BB203F0400300
:10203000002B16D0FB799B0003F1804303F5B843D6
:102040001B689BB21A4640F60F73134043F40042DC
:1020500042F0C002FB799B0003F1804303F5B843D3
:102060001A6000BF0C37BD4680BC704780B483B097
:1020700000AF03460A46FB711346BB80BB885B0872
:102080009BB25A00084B1B689BB21946FB79DB00D8
:102090000B4403F1005303F540535B001A6000BF8B
:1020A0000C37BD4680BC7047505C004080B483B0A4
:1020B00000AF03460A46FB711346BB80BB885B0832
:1020C0009BB25900084B1B689BB21A46FB79DB0098
:1020D0001A44064B13445B000A461A6000BF0C37D3
:1020E000BD4680BC704700BF505C004004300020FB
:1020F00080B483B000AF0346FB71094B1B689BB2F1
:102100001A46FB79DB00134403F1005303F54053F7
:102110005B001B689BB218460C37BD4680BC7047FD
:10212000505C004080B483B000AF0346FB71084BA5
:102130001B689BB21A46FB79DB001A44054B13441B
:102140005B001B689BB218460C37BD4680BC7047CD
:10215000505C00400430002080B483B000AF0346E0
:102160000A46FB711346BB80084B1B689BB21A469C
:10217000FB79DB001A44064B13445B001A46BB880C
:10218000136000BF0C37BD4680BC7047505C0040F8
:102190000230002080B485B000AF03460A46FB71D0
:1021A0001346BB801A4B1B689BB21A46FB79DB00B7
:1021B0001A44184B13445B00BB60BB883E2B12D9FA
:1021C000BB885B09FB81BB8803F01F03002B02D196
:1021D000FB89013BFB81FB899B0243F400431A46C8
:1021E000BB681A600FE0BB885B08FB81BB8803F00B
:1021F0000103002B02D0FB890133FB81FB899B0289
:102200001A46BB681A6000BF1437BD4680BC7047D1
:10221000505C00400630002080B483B000AF03461D
:10222000FB710A4B1B689BB21A46FB79DB001A4410
:10223000074B13445B001B689BB2C3F309039BB2BB
:1022400018460C37BD4680BC704700BF505C00404C
:102250000630002080B485B000AF0346FB80FB88C9
:10226000FB73FB881B0A9BB21AB2FB7B1B021BB2DF
:1022700013431BB2BB81BB8918461437BD4680BCD3
:102280007047000080B582B000AF114B7B60114BEE
:102290003B6007E07A68131D7B603B68191D39605D
:1022A00012681A603B680C4A9342F3D30B480C49FE
:1022B0004FF000028842B8BF40F8042BFADBFFF76A
:1022C000A1FC01F029FF00BF0837BD4680BD00BF5B
:1022D0003A4C000800000020F4050020F40500201E
:1022E000F808002080B400AFFEE7000080B483B09F
:1022F00000AF0346FB71044AFB79136000BF0C3743
:10230000BD4680BC704700BF20000E4280B582B041
:1023100000AF0121042001F059FF4FF4C053BB80EE
:102320000323BB711423FB713B1D19460B4800F0BE
:1023300009F94FF4802002F055F8094B4FF4802240
:102340001A60074B08225A71054B01229A71044802
:1023500001F0B2FF00BF0837BD4680BD0008014054
:102360006806002080B500AF002001F0EFFE0121DB
:102370004FF4000001F048FF00BF80BD80B582B07F
:1023800000AF094B7B607B689B7A002B03D0074B27
:1023900005221A6002E0054B01221A60FFF732FCA9
:1023A00000BF0837BD4680BDA4060020F805002008
:1023B00080B582B000AF4FF4A06002F0B5F81423EE
:1023C0003B7102237B710023BB710123FB713B1D19
:1023D000184602F0BBF82A233B7101237B713B1D99
:1023E000184602F0B3F800BF0837BD4680BD0000B4
:1023F00080B582B000AF0346FB71FB79002B05D09E
:102400004FF40061064800F067F904E04FF4006102
:10241000034800F053F900BF0837BD4680BD00BF38
:102420000008014080B584B000AF0F4B1B68FB6013
:102430000E4B1B68BB600E4B1B687B60FA687B68A9
:102440001344FB60FB68002B09D008220949F86897
:1024500000F014F804220849B86800F00FF800BF33
:102460001037BD4680BD00BFE8F7FF1FECF7FF1F28
:10247000F0F7FF1F020000201200002080B487B098
:1024800000AFF860B9601346FB710023FB750023B1
:10249000FB7527E0FB681B0F092B0BD8FB681B0F94
:1024A000DAB2FB7D5B001946BB680B443032D2B216
:1024B0001A700AE0FB681B0FDAB2FB7D5B0019465D
:1024C000BB680B443732D2B21A70FB681B01FB6049
:1024D000FB7D5B000133BA68134400221A70FB7D58
:1024E0000133FB75FA7DFB799A42D3D300BF00BF5D
:1024F0001C37BD4680BC704780B582B000AF7860A5
:102500000B46FB70FB783F2B14D80D4B00221A6052
:10251000FB789BB21A46C021786802F079F8FB7804
:102520009BB219460120FFF717FE0120FFF7CCFCF4
:10253000012300E0002318460837BD4680BD00BFD8
:102540007C01002080B489B000AF7860396000233E
:10255000FB6100233B610023BB610023FB60002380
:102560007B610023BB603B68DB7803F00F03FB61FA
:102570003B68DB7803F01003002B05D03B689B78A9
:102580001A46FB691343FB613B681B88DBB2002BD7
:1025900044D07B681B687B610023BB6138E001226B
:1025A000BB6902FA03F3FB603B681B881A46FB68B1
:1025B00013403B613A69FB689A4226D1BB699B0094
:1025C000FB600F22FB6802FA03F3BB60BB68DB43CE
:1025D0007A6913407B61FA69FB6802FA03F37A694E
:1025E00013437B613B68DB78282B05D10122BB6953
:1025F0009A407B685A6108E03B68DB78482B04D13D
:102600000122BB699A407B681A61BB690133BB61D7
:10261000BB69072BC3D97B687A691A603B681B8842
:10262000FF2B46D97B685B687B610023BB613AE086
:10263000BB690833012202FA03F3FB603B681B8885
:102640001A46FB6813403B613A69FB689A4227D1FE
:10265000BB699B00FB600F22FB6802FA03F3BB60BF
:10266000BB68DB437A6913407B61FA69FB6802FA55
:1026700003F37A6913437B613B68DB78282B05D130
:10268000BB69083301229A407B685A613B68DB785A
:10269000482B05D1BB69083301229A407B681A6137
:1026A000BB690133BB61BB69072BC1D97B687A6900
:1026B0005A6000BF2437BD4680BC704780B483B0E9
:1026C00000AF78600B467B807A887B681A6100BF18
:1026D0000C37BD4680BC704780B483B000AF7860D3
:1026E0000B467B807A887B685A6100BF0C37BD46F9
:1026F00080BC704780B487B000AF78600B46FB7039
:1027000000233B610023FB6000237B610023BB604F
:102710007B68002B03DA2E4BDB697B6102E02C4BDC
:102720005B687B617B681B0C03F00F03BB607B68FD
:102730009BB23B617B6803F44013B3F5401F0AD1A1
:102740007B6923F070637B61214B5B68204A23F037
:102750007063536021E07B6803F48013002B0ED07C
:102760000322BB6802FA03F3FB60FB68DB437A6970
:1027700013407B617B6943F070637B610DE07B6894
:102780005B0D1B013A6902FA03F3DB437A691340DC
:102790007B617B6943F070637B61FB78002B08D021
:1027A0007B685B0D1B013A6902FA03F37A691343F4
:1027B0007B617B68002B03DA054A7B69D36102E009
:1027C000034A7B69536000BF1C37BD4680BC70471D
:1027D0000000014080B485B000AF03460A46FB719B
:1027E0001346BB710023FB60BB7903F003039B001E
:1027F0000F2202FA03F3FB60154ABB799B08DBB298
:10280000023352F82320FB68DB431148B979890869
:10281000C9B21A408B1C40F823200D4ABB799B0893
:10282000DBB2023352F82320F979BB7903F00303BA
:102830009B0001FA03F30648B9798908C9B21A4323
:102840008B1C40F8232000BF1437BD4680BC704766
:102850000000014080B500AFFFF7E4FD064B1B68A8
:1028600000229A7200F0A8F901F0CAFD034B002281
:102870001A6000BF80BD00BFC4060020F80500201C
:1028800080B500AF374B1B6800229A72354B1B682E
:10289000354AD2795A72334B1B680022DA72002013
:1028A000FFF76AFA4FF400710020FFF777FA102162
:1028B0000020FFF799FA40210020FFF7F7FB802165
:1028C0000020FFF7D3FB0020FFF752FB274B93F8C4
:1028D0002C309BB219460020FFF75CFC0020FFF76C
:1028E0001DFB00210120FFF759FAC0210120FFF74D
:1028F000BDFB20210120FFF777FA00210120FFF71F
:10290000ABFA4FF4C0610220FFF748FA4FF4807130
:102910000220FFF7ABFB00210220FFF79DFA2021E8
:102920000220FFF761FA00210320FFF737FA4FF486
:1029300088710320FFF7BAFB40210320FFF72AFC30
:102940004FF440510320FFF787FA00210320FFF7DF
:102950004BFA0020FEF72CFC054B01221A6000BF49
:1029600080BD00BFC4060020E44900082800002004
:10297000F805002080B483B000AF074B7B607B6814
:102980009B7A002B02D0054B05221A6000BF0C3742
:10299000BD4680BC704700BFA4060020F80500209B
:1029A00080B400AF034B04221A6000BFBD4680BC58
:1029B000704700BFF805002080B400AF054B1B78BE
:1029C000202B02D1034B00221A7000BFBD4680BCF1
:1029D000704700BFF505002080B400AF00BFBD46C2
:1029E00080BC704780B584B000AF0346FB71002304
:1029F000FB60FB79212B09D1164B1B681B7803F078
:102A00007F03212B11D1144BFB600EE0FB79202BAF
:102A10000BD1104B1B681B7803F07F03212B01D1D6
:102A20000E4BFB600E4B20221A70FB68002B01D16D
:102A300002230BE0074B1B68FA689A61054B1B6881
:102A400000225A82FB68002098470023184610375E
:102A5000BD4680BDC4060020592B0008892B000804
:102A6000F505002080B483B000AF0346FB710B4B2B
:102A70001B681B7803F07F03212B09D1FB79022B04
:102A800001D1002305E0FB79222B01D1002300E0D6
:102A9000022318460C37BD4680BC7047C406002090
:102AA00080B582B000AF0346FB80FB88044918461E
:102AB000FDF7DCFE034618460837BD4680BD00BF63
:102AC0007C00002080B582B000AF0346FB80FB880D
:102AD00004491846FDF7CAFE034618460837BD46A6
:102AE00080BD00BF8400002080B584B000AF0346E5
:102AF000FB800B4B1B68DB78FB73FB7B042B01D942
:102B0000002309E0FB7BDB00064A1A44FB881146E0
:102B10001846FDF7ABFE034618461037BD4680BD8C
:102B2000C40600208C00002080B483B000AF0346B0
:102B30000A46FB711346BB71BB79002B01D00223FF
:102B400005E0FB79012B01D9022300E000231846A0
:102B50000C37BD4680BC704780B483B000AF0346DD
:102B6000FB80FB88002B05D1054B1B6808221A82CD
:102B7000002300E0034B18460C37BD4680BC70476D
:102B8000C40600201C00002080B483B000AF0346C0
:102B9000FB80FB88002B05D1054B1B6808221A829D
:102BA000002300E0034B18460C37BD4680BC70473D
:102BB000C40600201C00002080B582B000AF0120B8
:102BC000FFF716FC0123FB800C4AFB8813600C4BBB
:102BD00000221A800A4B1A88084B1A60094B0022FF
:102BE0001A60074B4FF4E0521A80054B1A88034BCA
:102BF0001A60002318460837BD4680BD405C00407F
:102C0000C8060020445C004080B485B000AF0023BB
:102C1000FB600023BB6000233B60514B1B68FB80C3
:102C20000023FB600FE0FB689B0003F1804303F58A
:102C3000B8431B689BB219464A4AFB6842F8231006
:102C4000FB680133FB60FB68072BECD9FB8843F47E
:102C50008063FB80424AFB881360FB8843F00103DA
:102C6000FB803F4AFB881360FB8823F00103FB8055
:102C70003B4AFB88136000BF3B4B1B689BB203F4CD
:102C80008063002BF8D0384B4FF6FF321A600023D8
:102C9000FB600EE0334AFB6852F823309AB2FB68BF
:102CA0009B0003F1804303F5B8431A60FB680133CE
:102CB000FB60FB68072BEDD9FB8843F00803FB8022
:102CC000274AFB881360264B1B68FB80FB8843F078
:102CD0000403FB80224AFB881360244B1B683B6083
:102CE000224B1B68BB60BB6823F00303BB60BB685F
:102CF00043F00103BB601D4ABB6813601C4B1B699A
:102D00001B4A43F004031361174B1B689BB203F487
:102D10008053002B08D130BF00BF154B1B69144AEC
:102D200023F00403136116E00F4B4EF6FF721A6096
:102D30000B4B1B68FB80FB8823F00803FB80084AD1
:102D4000FB881360094A3B681360094B1B69084AFA
:102D500023F00403136100BF1437BD4680BC7047E5
:102D6000405C004078060020445C00400070004059
:102D700000ED00E080B582B000AF0A4B1B68FB801D
:102D8000FB8823F00403FB80064AFB881360FFF7EF
:102D9000F5FA044B4FF43F421A6000BF0837BD46B6
:102DA00080BD00BF405C004080B584B000AF0346EA
:102DB000FB71FB79072B02D03F4AFB7913703E4B26
:102DC0001B78DBB2052B6BD801A252F823F000BFB1
:102DD000E92D0008052E0008172E0008252E0008F2
:102DE000452E0008672E0008344B1B68002B05D1C8
:102DF000FFF7C0FF304B06221A7058E02E4B052219
:102E00001A7054E0FFF7B6FF2B4B04221A702B4BBD
:102E100001221A604BE0284B02225A70264B0322F3
:102E20001A7044E0244B5B78DBB2013BDAB2224BF0
:102E30005A70214B5B78DBB2002B35D11E4B04223C
:102E40001A7031E01E4B1B68FB81FB8943F01003B5
:102E5000FB811B4AFB891360174B05221A70164B26
:102E60000A225A7023E0144B5B78DBB2013BDAB2E2
:102E7000114B5A70104B5B78DBB2002B16D1104B04
:102E80001B68FB81FB8923F01003FB810C4AFB8943
:102E90001360094B06221A70084B00221A6005E0E5
:102EA000054B06221A7002E000BF00E000BF00BF21
:102EB0001037BD4680BD00BF74060020FC05002011
:102EC000405C004080B500AF094B0A4A1A60084BCD
:102ED0001B6802221A72084B084A1A60084B094AFA
:102EE0001A60054B1B681B68984700BF80BD00BF78
:102EF000C4060020A40600209C0600202800002014
:102F0000C00600205800002080B483B000AF034604
:102F1000FB71FB7903F01F03012202FA03F1054A5A
:102F200097F907305B0942F8231000BF0C37BD4604
:102F300080BC704700E100E080B400AF0A4B9B69A1
:102F4000094A43F400639361084B44F24F621A85C7
:102F5000064B1B889BB2054A43F008039BB21380C3
:102F600000BFBD4680BC704700100240002C0140ED
:102F700080B483B000AF0346FB80FB889B00FB80DE
:102F80000E4AFB8893850D4B00229A840B4B01223D
:102F90001A8000BF094B1B8A9BB203F00103002B70
:102FA000F8D0064B1B8A9BB2044A23F001039BB264
:102FB000138200BF0C37BD4680BC7047002C014017
:102FC00080B483B000AF0346FB7100BF074B1B8882
:102FD0009BB203F04003002BF8D0044BFA7992B275
:102FE0009A8000BF0C37BD4680BC70470038014056
:102FF00080B584B000AF78600023FB6009E0FB6817
:103000005A1CFA601A467B6813441B781846FFF76F
:10301000D7FFFB687A6813441B78002BEFD100BF01
:1030200000BF1037BD4680BD80B500AF1B4B9B690C
:103030001A4A43F4804343F005039361184B5B68DD
:10304000174B00225A60164B5B68154A43F496638F
:103050005360144B41F64C521A81124B9B899BB220
:10306000104A43F00C039BB293810E4B9B899BB299
:103070000C4A43F400539BB293810A4B9B899BB249
:10308000084A43F020039BB293812520FFF73CFFC1
:103090000548FFF7ADFF00BF80BD00BF0010024034
:1030A0000008014000380140884A000880B584B01B
:1030B00000AF786003226649786801F04BFC034654
:1030C000002B0ED16348FFF793FF634B1B68634AE5
:1030D000002142F82310604B1B6801335E4A1360E5
:1030E000B2E005225E49786801F034FC0346002B0B
:1030F0000ED15C48FFF77CFF574B1B68574A0121F4
:1031000042F82310544B1B680133534A13609BE071
:1031100004225549786801F01DFC0346002B0ED1AE
:103120005248FFF765FF4C4B1B684C4A022142F89E
:103130002310494B1B680133474A136084E0062281
:103140004B49786801F006FC0346002B0ED1494834
:10315000FFF74EFF404B1B68404A032142F8231003
:103160003D4B1B6801333C4A13606DE00622424927
:10317000786801F0EFFB0346002B0ED13F48FFF7C4
:1031800037FF354B1B68354A042142F82310324B78
:103190001B680133304A136056E0042238497868CE
:1031A00001F0D8FB0346002B0ED13648FFF720FF75
:1031B000294B1B68294A052142F82310264B1B681E
:1031C0000133254A13603FE005222F49786801F05A
:1031D000C1FB0346002B0ED12C48FFF709FF1E4B05
:1031E0001B681E4A062142F823101B4B1B68013343
:1031F000194A136028E002222549786801F0AAFBE9
:103200000346002B1DD12348FFF7F2FE124B1B682B
:10321000214A13600023FB600AE0104AFB6852F861
:1032200023201E49FB6841F82320FB680133FB6023
:10323000094B1B68FA689A42EFDB074B00221A60C1
:1032400002E01748FFF7D4FE00BF1037BD4680BD2F
:10325000D44A0008D84A000800060020B40700201D
:10326000E04A0008E84A0008F44A0008FC4A00085E
:10327000044B00080C4B0008184B0008204B0008BA
:103280002C4B0008344B00083C4B0008444B000812
:10329000504B0008544B000878010020B00000207B
:1032A0006C4B000880B582B000AF1D4B1B889BB2F1
:1032B00003F02003002B2ED0194B1B889BB2184A19
:1032C00023F020039BB21380154B9B88FB80FB8867
:1032D0000D2B10D1134B1B785A1CD1B2114A11700F
:1032E0001A46114B002199540F48FFF7DFFE0D4B92
:1032F00000221A700FE0FB88DBB21846FFF760FE71
:10330000084B1B785A1CD1B2064A11701A46FB882A
:10331000D9B2054B995400BF0837BD4680BD00BFE8
:103320000038014004060020BC08002080B588B0A9
:1033300000AF0121092000F049FF0121052000F024
:1033400045FF40F2F333BB831823FB770323BB779E
:1033500007F11C0319467348FFF7F4F80F23BB83EA
:103360001823FB770323BB7707F11C0319466E482C
:10337000FFF7E8F80121012000F046FF01210220BB
:1033800000F042FF0121042000F03EFF01216748C8
:10339000FFF7B0F941F28833BB8200233B82002360
:1033A000FB8200237B8207F1100319464FF0804017
:1033B000FDF742FF41F28833BB8200233B820023AA
:1033C000FB8200237B8207F1100319465848FDF762
:1033D00033FF41F28833BB8200233B820023FB8210
:1033E00000237B8207F1100319465248FDF724FFA2
:1033F00060233B8001237B800023FB8000233B81F3
:103400003B4619464FF08040FDF792FF08214FF0F0
:103410008040FEF7CDF93B4619464FF08040FEF75D
:1034200013F808214FF08040FEF7DDF93B461946BE
:103430004FF08040FEF790F808214FF08040FEF7F3
:10344000EFF93B4619464FF08040FEF70BF9082193
:103450004FF08040FEF7FFF901214FF08040FEF76A
:1034600069F901214FF08040FEF783F93B46194688
:103470002F48FDF75DFF08212D48FEF799F93B46DF
:1034800019462B48FDF7E0FF08212948FEF7ABF964
:103490003B4619462648FEF75FF808212448FEF708
:1034A000BFF93B4619462248FEF7DCF808212048C0
:1034B000FEF7D1F901211E48FEF73CF901211C4815
:1034C000FEF757F93B4619461A48FDF731FF082128
:1034D0001848FEF76DF93B4619461648FDF7B4FF4C
:1034E00008211448FEF77FF93B4619461148FEF7BC
:1034F00033F808210F48FEF793F93B4619460D486B
:10350000FEF7B0F808210B48FEF7A5F9012109489C
:10351000FEF710F901210748FEF72BF900BF20370D
:10352000BD4680BD000C01400008014000081A00A3
:10353000000400400008004080B584B000AFF8608F
:10354000B9607A603B60FB68B96AB8699847BB6844
:10355000B96AF86998477B68B96A386A98473B68DE
:10356000B96A786A984700BF1037BD4680BD000031
:1035700080B58AB006AFF860B9607A60FB68062B48
:1035800000F2728101A252F823F000BFA9350008B1
:10359000E5350008213600085F360008CF36000800
:1035A00041370008C93700087B68032B00F05E81B3
:1035B0007B68042B00F05A817B68062B00F0568153
:1035C000BB6804934FF080430393794B0293794B8C
:1035D0000193784B0093784B784A79497648FFF706
:1035E000ABFF43E17B68032B00F042817B68052B36
:1035F00000F03E817B68062B00F03A81BB680493A3
:103600004FF0804303936A4B0293694B0193694BDC
:1036100000936A4B6B4A6A496A48FFF78DFF27E1BE
:103620007B68042B00F026817B68052B00F022814B
:103630007B68062B00F01E81BB6804934FF080432B
:1036400003934FF080430293594B0193594B0093DE
:103650005C4B5B4A58495948FFF76EFF0AE17B68AB
:10366000002B16D07B68042B13D07B68062B10D060
:10367000BB6804934FF0804303934D4B02934D4B33
:1036800001934C4B00934C4B4C4A4D494A48FFF731
:1036900053FF7B68012B00F0EF807B68052B00F067
:1036A000EB807B68062B00F0E780BB6804934FF04B
:1036B000804303933E4B02933D4B01933D4B00935C
:1036C0003E4B404A3E493F48FFF736FFD4E07B6817
:1036D000002B16D07B68042B13D07B68062B10D0F0
:1036E000BB6804934FF080430393314B0293314BFB
:1036F0000193304B0093304B304A31492E48FFF74D
:103700001BFF7B68022B00F0B9807B68052B00F063
:10371000B5807B68062B00F0B180BB6804934FF046
:10372000804303934FF080430293214B0193214B3D
:103730000093244B224A20492048FFF7FDFE9DE0DC
:103740007B68012B16D07B68032B13D07B68062B7C
:1037500010D0BB6804934FF080430393144B029343
:10376000134B0193134B0093144B164A14491548FD
:10377000FFF7E2FE7B68022B00F082807B68042B5F
:103780007ED07B68062B7BD0BB6804934FF08043D0
:1037900003934FF080430293054B0193054B009335
:1037A000084B074A04490548FFF7C6FE68E000BF1A
:1037B0000008004000040040AD180008C9180008C7
:1037C00091180008E51800087B68002B16D07B686C
:1037D000032B13D07B68042B10D0BB6804934FF0ED
:1037E000804303932A4B02932A4B0193294B009366
:1037F000294B2A4A2A492848FFF79EFE7B68012B5D
:1038000016D07B68032B13D07B68052B10D0BB68C8
:1038100004934FF0804303931D4B02931C4B019381
:103820001C4B00931D4B1F4A1D491E48FFF784FE89
:103830007B68022B26D07B68042B23D07B68052B6A
:1038400020D0BB6804934FF0804303934FF0804334
:1038500002930F4B01930F4B0093124B104A0E49EA
:103860000E48FFF769FE0DE000BF0CE000BF0AE064
:1038700000BF08E000BF06E000BF04E000BF02E0B8
:1038800000BF00E000BF00BF1037BD4680BD00BFD5
:103890000008004000040040AD180008C9180008E6
:1038A00091180008E518000880B58AB006AFF860E6
:1038B000B9607A60FB68062B00F2728101A252F8AF
:1038C00023F000BFE13800081D390008593900080D
:1038D00097390008073A0008793A0008013B0008C8
:1038E0007B68032B00F05E817B68042B00F05A811B
:1038F0007B68062B00F05681BB6804934FF0804331
:103900000393794B0293794B0193784B0093784B57
:10391000784A79497648FFF70FFE43E17B68032B2D
:1039200000F042817B68052B00F03E817B68062B0E
:1039300000F03A81BB6804934FF0804303936A4BD5
:103940000293694B0193694B00936A4B6B4A6A4936
:103950006A48FFF7F1FD27E17B68042B00F0268120
:103960007B68052B00F022817B68062B00F01E810E
:10397000BB6804934FF0804303934FF0804302935E
:10398000594B0193594B00935C4B5B4A584959483A
:10399000FFF7D2FD0AE17B68012B16D07B68052B6F
:1039A00013D07B68062B10D0BB6804934FF0804384
:1039B00003934D4B02934C4B01934C4B00934D4B57
:1039C0004E4A4D494D48FFF7B7FD7B68002B00F08C
:1039D000EF807B68042B00F0EB807B68062B00F007
:1039E000E780BB6804934FF0804303933E4B029300
:1039F0003E4B01933D4B00933D4B3E4A3E493C4874
:103A0000FFF79AFDD4E07B68002B16D07B68032B70
:103A100013D07B68062B10D0BB6804934FF0804313
:103A20000393314B0293314B0193304B0093304B56
:103A3000304A31492E48FFF77FFD7B68022B00F0AA
:103A4000B9807B68052B00F0B5807B68062B00F001
:103A5000B180BB6804934FF0804303934FF08043E1
:103A60000293214B0193214B0093244B224A20497E
:103A70002048FFF761FD9DE07B68012B16D07B6835
:103A8000032B13D07B68062B10D0BB6804934FF038
:103A900080430393144B0293134B0193134B0093F6
:103AA000144B164A14491548FFF746FD7B68022B54
:103AB00000F082807B68042B7ED07B68062B7BD055
:103AC000BB6804934FF0804303934FF0804302930D
:103AD000054B0193054B0093084B074A04490548E1
:103AE000FFF72AFD68E000BF000800400004004026
:103AF000AD180008C918000891180008E51800085A
:103B00007B68002B16D07B68032B13D07B68042BBB
:103B100010D0BB6804934FF0804303932A4B029369
:103B20002A4B0193294B0093294B2A4A2A492848BA
:103B3000FFF702FD7B68012B16D07B68032B13D0A7
:103B40007B68052B10D0BB6804934FF08043039330
:103B50001D4B02931C4B01931C4B00931D4B1F4AA2
:103B60001D491E48FFF7E8FC7B68022B26D07B68C6
:103B7000042B23D07B68052B20D0BB6804934FF027
:103B8000804303934FF0804302930F4B01930F4BFD
:103B90000093124B104A0E490E48FFF7CDFC0DE082
:103BA00000BF0CE000BF0AE000BF08E000BF06E075
:103BB00000BF04E000BF02E000BF00E000BF00BFA4
:103BC0001037BD4680BD00BF000800400004004023
:103BD000AD180008C918000891180008E518000879
:103BE00080B586B000AF7860396000237B614CE01F
:103BF0007B699B007A6813441A68284B1B689A42B9
:103C00002ED0274B1B683B610023FB601EE0234B3B
:103C100018687B699B007A6813441B681A463969E7
:103C2000FFF7A6FC7B699B007A6813441B681B4A5C
:103C30001268F9681846FFF737FE0120FFF798F978
:103C40003B69013B3B61FB680133FB603B69002B37
:103C5000DDDA7B699B007A6813441B680F4A1360A6
:103C60000023BB6005E00120FFF782F9BB68013348
:103C7000BB600B4B1B68DA0F13445B101A46BB6822
:103C80009342F0DB7B6901337B617A693B689A423E
:103C9000AEDB00BF00BF1837BD4680BD88010020E5
:103CA0008401002080B584B000AF0121092000F01C
:103CB0008DFA62B600BF0121082000F087FA4FF4A8
:103CC0008063BB810223BB734823FB7307F10C03A2
:103CD00019461448FEF736FC0A210120FEF77AFD4A
:103CE0004FF480637B6000233B720C237B720123C3
:103CF000BB723B1D184600F0DFFA4FF4E06000F0A5
:103D000013FC28233B7000237B700023BB7001232E
:103D1000FB703B46184600F019FC00BF1037BD464B
:103D200080BD00BF000C014080B582B000AF4FF4F1
:103D3000806000F033FB0346012B2BD1FCF72CFAFB
:103D40000346184600F0E0FD00237B6016E000F01B
:103D5000E3FD0246114B83FB021313449910D31762
:103D6000C91A0B46DB005B1AD31A3B600C497B680F
:103D70003A6841F823207B6801337B60094B1B685C
:103D80007A689A42E3DB6420FFF7F2F84FF4806030
:103D900000F028FB00BF0837BD4680BD9324499240
:103DA000B00000207801002080B500AFFEF7AEFA29
:103DB000FEF7D8FAFEF7FCFAFFF784F800BF80BDE3
:103DC00080B584B000AF786003227849786800F04D
:103DD000C1FD0346002B0FD105217548FEF78CFB72
:103DE000744B1B68744A002142F82310714B1B6806
:103DF0000133704A1360D5E005227049786800F0FD
:103E0000A9FD0346002B0FD107216D48FEF774FB77
:103E1000684B1B68684A012142F82310654B1B68F8
:103E20000133644A1360BDE004226649786800F0FB
:103E300091FD0346002B0FD106216348FEF75CFB82
:103E40005C4B1B685C4A022142F82310594B1B68EB
:103E50000133584A1360A5E006225C49786800F0F7
:103E600079FD0346002B0FD108215948FEF744FB8A
:103E7000504B1B68504A032142F823104D4B1B68DE
:103E800001334C4A13608DE006225249786800F0F5
:103E900061FD0346002B0FD108214F48FEF72CFB94
:103EA000444B1B68444A042142F82310414B1B68D1
:103EB0000133404A136075E004224849786800F0F5
:103EC00049FD0346002B0FD106214548FEF714FBA0
:103ED000384B1B68384A052142F82310354B1B68C4
:103EE0000133344A13605DE005223E49786800F0F2
:103EF00031FD0346002B0FD107213B48FEF7FCFAAA
:103F00002C4B1B682C4A062142F82310294B1B68B6
:103F10000133284A136045E002223449786800F0F2
:103F200019FD0346002B1ED115213148FEF7E4FA96
:103F3000204B1B682F4A13600023FB600AE01E4AD7
:103F4000FB6852F823202C49FB6841F82320FB68CA
:103F50000133FB60174B1B68FA689A42EFDB154B85
:103F600000221A601EE004222449786800F0F2FC66
:103F70000346002B12D11F212148FEF7BDFA322043
:103F8000FEF7F6FF1B211F48FEF7B6FA3220FEF7B8
:103F9000EFFF11211C48FEF7AFFA03E00D211B488B
:103FA000FEF7AAFA00BF1037BD4680BDD44A00080C
:103FB0007C4B00080C060020EC060020E04A0008BC
:103FC000844B0008F44A00088C4B0008044B00089E
:103FD000944B0008184B0008A04B00082C4B00081D
:103FE000AC4B00083C4B0008B44B0008504B000899
:103FF000BC4B000878010020B0000020D44B000822
:10400000DC4B0008FC4B0008184C00082C4C000846
:1040100080B500AF144B1B68002B22D0134B1B78CC
:10402000DBB20D2B09D11248FFF7CAFE0E4B00225E
:104030001A60104B00221A6010E00B4B1B68DBB2B9
:1040400019460A48FEF758FA0A4B1B685A1C0949D8
:104050000A60064A1278D1B2054AD154024B0022B6
:104060001A6000BF80BD00BFF008002028060020B5
:10407000CC0600200806002080B582B000AF4FF4C7
:10408000C06000F051FA03233B7101237B710023D0
:10409000BB710123FB713B1D184600F057FA01214B
:1040A0004FF0C05000F0B0F80120FEF71FF90120DA
:1040B00000F05AF800BF612000F0C4F80346002B5E
:1040C000F9D04FF4807000F05FF8012000F06EF836
:1040D000FCF7A4F8FCF790F801210120FCF716F892
:1040E000FCF78AF847F6FF70FCF76CF8FCF784F8E9
:1040F00000BF0837BD4680BD80B500AF0120FCF78A
:10410000A7F80346002B04D00120FCF7C9F8FCF700
:1041100073F800BF80BD000080B500AFFEF70CFF54
:10412000FEF782FFFFF702F9FFF7BCFDFFF73CFE49
:10413000FFF7A2FF034B1B6819460348FFF750FD2A
:10414000F8E700BF78010020B000002080B483B001
:1041500000AF7860034A7B68136000BF0C37BD4630
:1041600080BC7047D800424280B483B000AF0346A1
:10417000FB71044AFB79136000BF0C37BD4680BC5D
:10418000704700BF8004424280B483B000AF7860C3
:10419000054B1A6A04497B6813430B6200BF0C3756
:1041A000BD4680BC704700BF0010024080B483B0A1
:1041B00000AF0346FB71044AFB79136000BF0C3764
:1041C000BD4680BC704700BF3C04424280B483B00F
:1041D00000AF78600B46FB70FB78002B06D0094BD4
:1041E0009A6908497B6813438B6106E0054B9A691D
:1041F0007B68DB43034913408B6100BF0C37BD462E
:1042000080BC70470010024080B483B000AF78607B
:104210000B46FB70FB78002B06D0094BDA69084986
:104220007B681343CB6106E0054BDA697B68DB43AF
:1042300003491340CB6100BF0C37BD4680BC7047BB
:104240000010024080B487B000AF0346FB7100232A
:10425000FB6000237B610023FB74FB795B09DBB20D
:10426000FB60FB68012B03D1124B1B687B6109E0EB
:10427000FB68022B03D10F4B1B6A7B6102E00D4BE5
:104280005B6A7B61FB7903F01F03FB607A69FB6863
:1042900022FA03F303F00103002B02D00123FB7485
:1042A00001E00023FB74FB7C18461C37BD4680BC34
:1042B000704700BF0010024080B485B000AF786046
:1042C0000023FB60344BFB607B689B79002B4FD055
:1042D000314B1A687B681B68DB432F4913400B6026
:1042E0002D4B5A687B681B68DB432B4913404B609E
:1042F0007B681B791A46FB681344FB60FB681968EE
:104300007B681A68FB680A431A60234B9A687B68CB
:104310001B68DB43204913408B601F4BDA687B68C6
:104320001B68DB431C491340CB607B685B79102B17
:104330000ED1194B9A687B681B68174913438B6031
:10434000154BDA687B681B6813491343CB601DE08B
:10435000114BFB607B685B791A46FB681344FB607A
:10436000FB6819687B681A68FB680A431A600DE0ED
:104370007B681B791A46FB681344FB60FB6819686D
:104380007B681B68DA43FB680A401A6000BF143779
:10439000BD4680BC704700BF0004014080B485B0BA
:1043A00000AF78600023FB730023BB600C4B1B68DD
:1043B0007A681340BB600A4B5A697B681340002B34
:1043C00005D0BB68002B02D00123FB7301E0002362
:1043D000FB73FB7B18461437BD4680BC704700BF9B
:1043E0000004014080B483B000AF7860034A7B686A
:1043F000536100BF0C37BD4680BC704700040140CC
:1044000080B400AF074B00221A60074B4FF43F42C5
:104410001A80054B1A88054B1A6000231846BD46C2
:1044200080BC7047445C0040C8060020405C0040EF
:10443000ABBE01E000207047002A00D010600120D0
:104440007047069801884BF6AB62914202D1043066
:1044500006907047FEE780B400AF00BFBD4680BC49
:10446000704780B400AFFEE780B400AFFEE780B4D1
:1044700000AFFEE780B400AF00BFBD4680BC704710
:1044800080B400AF00BFBD4680BC704780B400AFB1
:1044900000BFBD4680BC704780B400AF00BFBD46C2
:1044A00080BC704780B500AF00F01CF900BF80BD34
:1044B00080B500AF4FF48020FFF794FF00BF80BDB0
:1044C00080B400AF034B01221A6000BFBD4680BC20
:1044D000704700BF7C01002080B500AF0320FDF7CE
:1044E0001DFD0E4B01221A600320FDF795FE0346C9
:1044F0001A460B4B1A600A4B1B689BB21A464FF4C4
:104500008871084800F0BFF8FFF782FD034B0022D6
:104510001A600320FDF702FD00BF80BD800100206E
:10452000F00800202806002080B483B000AF786037
:10453000054A7B6843F0BF6343F40033D36000BF98
:104540000C37BD4680BC704700ED00E080B487B0FA
:1045500000AF786000237B6100233B610F23FB6089
:104560007B68DB78002B3AD0274BDB68DB431B0AE8
:1045700003F007037B617B69C3F104033B61FA68C5
:104580007B6922FA03F3FB607B685B781A463B6920
:1045900002FA03F37B617B689B781A46FB68134041
:1045A0007A6913437B617B691B017B61174A7B68D6
:1045B0001B787969C9B213440A4683F800237B68E3
:1045C0001B7803F01F0311497A6812785209D2B29E
:1045D0001046012202FA03F341F820300FE07B6815
:1045E0001B7803F01F0309497A6812785209D2B286
:1045F000104601229A4000F1200341F8232000BF19
:104600001C37BD4680BC704700ED00E000E100E0D3
:1046100080B489B000AF78600B467B8013463B8046
:104620003B8801335B107B617B8803F1005303F50A
:1046300040535B00BB617B69FB611BE07B681B78BF
:104640003B617B6801337B607B681B781B021A46E9
:104650003B691343FB60BB699A1CBA61FA6892B26A
:104660001A80BB690233BB617B6801337B60FB69E5
:10467000013BFB61FB69002BE0D100BF00BF243789
:10468000BD4680BC704780B487B000AF78600B46F1
:104690007B8013463B803B8801335B10FB607B884B
:1046A00003F1005303F540535B003B61FB687B6102
:1046B0000EE03B691A1D3A6119687B685A1C7A60E2
:1046C0008AB21A807B6801337B607B69013B7B6126
:1046D0007B69002BEDD100BF00BF1C37BD4680BCFD
:1046E0007047000080B58AB000AF00237B627C4B2E
:1046F0001B689AB27B4B1A807A4B1B889BB203F4DF
:104700000073794A12881340002B0AD0744B4FF67D
:10471000FF521A60754B1B78DBB20133DAB2734B70
:104720001A70704B1B889BB203F400436E4A1288C8
:104730001340002B01D0FDF7E5F86A4B1B889BB2B4
:1047400003F48063684A12881340002B06D0644B40
:104750004FF6FF321A60664B5B689847614B1B88C7
:104760009BB203F40053604A12881340002B03D01D
:104770005B4B4DF6FF721A605A4B1B889BB203F4D9
:104780008053594A12881340002B06D0544B4EF6E2
:10479000FF721A600020FEF707FB524B1B889BB28A
:1047A00003F40063504A12881340002B0ED0514B83
:1047B0001B78DBB2002B02D0FEF726FA02E00220C3
:1047C000FEF7F2FA464B4FF2FF721A60454B1B8818
:1047D0009BB203F48073444A12881340002B7BD0B1
:1047E0003F4B4FF6FF621A60434B1B681BB2002B16
:1047F0006CDA424B1B680133404A13603F4B1B6825
:10480000032B66D93E4B1B689BB203F00803002BB9
:104810005FD13B4B1B689BB21A463A4B1A60002390
:104820007B6212E07B6A9B0003F1804303F5B8438F
:104830001B689BB21A467B6A9B0007F128010B4458
:1048400043F8242C7B6A01337B627B6A072BE9D90E
:104850002C4B1B6843F001032A4A1360294B1B6849
:104860009AB2274B1A60274B1B6823F00103254A95
:104870001360244B1B689AB2214B1A6000BF184B7F
:104880001B689BB203F48063002BF8D0144B4FF6E7
:10489000FF321A6000237B6211E07B6A9B0007F104
:1048A0002802134453F8243C9AB27B6A9B0003F11C
:1048B000804303F5B8431A607B6A01337B627B6AED
:1048C000072BEAD90D4B00221A6002E00B4B0022A5
:1048D0001A600720FEF768FA00BF2837BD4680BD82
:1048E000445C0040F4080020C806002010060020A8
:1048F00028000020AC000020485C00401406002086
:10490000405C0040180600200022024B1B68C3E9EF
:104910002A027047B80500200B4B0C48196810B4E8
:10492000D1E92A2300FB02F0094C04FB0300A2FB9F
:10493000043404445A1C44F10000C1E92A2010BC8C
:1049400020F00040704700BFB80500202DF45158FA
:104950002D7F954C9AB3F0B440EA0105AD070446AB
:104960000346084628D020780B78834229D1012AB3
:104970002AD0254650B115F8010F11F8013F984291
:104980001FD1EB431344E318F4D11846F0BC704731
:1049900007681C4653F8045B0146A5F10136BD4289
:1049A00000F1040026EA0506DDD1043A0CD016F029
:1049B000803F09D11C460146032AE9D8D3E71046B7
:1049C0007047C01AF0BC70470020F0BC704700BFB1
:1049D000120100020200004083044057000201025D
:1049E0000301000009024300020100C03209040073
:1049F000000102020100052400100105240100014C
:104A0000042402020524060001070582030800FFB2
:104A100009040100020A000000070503024000002B
:104A20000705810240000000040309042603530027
:104A300054004D006900630072006F0065006C0057
:104A400065006300740072006F006E00690063000F
:104A5000730000003203530054004D003300320055
:104A600020005600690072007400750061006C003F
:104A7000200043004F004D00200050006F007200E6
:104A80007400200020000000456E74657220312003
:104A9000636F6C6F7220287265642C677265656E37
:104AA0002C626C75652C79656C6C6F772C707572E7
:104AB000706C652C6379616E2C7768697465292048
:104AC000616E64206F6B20746F2066696E69736815
:104AD0000D0A0000726564003A7265640D0A0000F8
:104AE000677265656E0000003A677265656E0D0A53
:104AF00000000000626C7565000000003A626C7591
:104B0000650D0A0079656C6C6F7700003A79656C09
:104B10006C6F770D0A000000707572706C65000094
:104B20003A707572706C650D0A0000006379616EF1
:104B3000000000003A6379616E0D0A0077686974BD
:104B4000650000003A77686974650D0A000000008E
:104B50006F6B00003A416C6C20636F6C6F72732056
:104B600061636365707465640D0A00003A57726F83
:104B70006E6720636F6C6F72210D0A003A72656474
:104B80000D0000003A677265656E0D003A626C7543
:104B9000650D00003A79656C6C6F770D00000000C0
:104BA0003A707572706C650D000000003A637961AF
:104BB0006E0D00003A77686974650D003A416C6CBF
:104BC00020636F6C6F7273206163636570746564DA
:104BD0000D00000068656C70000000000D456E74EB
:104BE0006572203120636F6C6F7220287265642CAF
:104BF000677265656E2C626C75652C0079656C6CEE
:104C00006F772C707572706C652C6379616E2C7780
:104C10006869746529200000616E64206F6B2074E0
:104C20006F2066696E6973680D0000003A57726FF5
:0A4C30006E6720636F6C6F720D0059
:104C3A001A03530054004D003300320000000000F4
:104C4A0000000000000000000000000080250000B5
:104C5A000000080004010000552800088128000807
:104C6A00B9290008D9290008E5290008652A000899
:104C7A00292B0008A12A0008C52A0008E92A0008E9
:104C8A0000000000400000002D12000875290008ED
:104C9A002D1200082D1200082D1200082D120008EE
:104CAA002D1200082D120008A1290008D049000879
:104CBA0012000000E449000843000000284A0008E6
:104CCA00040000002C4A000826000000544A00088C
:104CDA0032000000000000201A000000010000005D
:104CEA0000000000010000000200000003000000B4
:104CFA00040000000500000006000000000000009B
:104D0A000000000000000000000000000000000099
:104D1A000000000000000000000000000000000089
:104D2A000000000000000000000000000000000079
:104D3A000000000000000000000000000000000069
:104D4A000000000000000000000000000000000059
:104D5A000000000000000000000000000000000049
:104D6A000000000000000000000000000000000039
:104D7A000000000000000000000000000000000029
:104D8A000000000000000000000000000000000019
:104D9A000000000000000000000000000000000009
:104DAA0000000000000000000200000001000000F6
:104DBA0001000000D0070000FFFFFFFF0000000015
:104DCA0000000000000000000100000000000000D8
:104DDA0000000000000000000000000000000000C9
:104DEA0000000000000000000000000000000000B9
:104DFA0000000000000000000000000000000000A9
:104E0A000000000000000000000000000000000098
:1051EA00000000000000000090010020C1440008F7
:1051FA002D1200082D1200082D1200082D12000889
:10520A002D1200082D1200082D1200082D12000878
:10521A00D94400082D1200082D1200082D1200088A
:04522A002D12000839
:0400000508000000EF
:00000001FF
